{"abi":[{"type":"function","name":"args","inputs":[],"outputs":[{"name":"","type":"bytes","internalType":"bytes"}],"stateMutability":"view"},{"type":"function","name":"binary_check","inputs":[],"outputs":[],"stateMutability":"nonpayable"},{"type":"function","name":"bytesToString","inputs":[{"name":"data","type":"bytes","internalType":"bytes"}],"outputs":[{"name":"","type":"string","internalType":"string"}],"stateMutability":"pure"},{"type":"function","name":"code","inputs":[],"outputs":[{"name":"","type":"string","internalType":"string"}],"stateMutability":"view"},{"type":"function","name":"const_overrides","inputs":[{"name":"","type":"uint256","internalType":"uint256"}],"outputs":[{"name":"key","type":"string","internalType":"string"},{"name":"value","type":"string","internalType":"string"}],"stateMutability":"view"},{"type":"function","name":"creation_code","inputs":[{"name":"file","type":"string","internalType":"string"}],"outputs":[{"name":"bytecode","type":"bytes","internalType":"bytes"}],"stateMutability":"payable"},{"type":"function","name":"creation_code_with_args","inputs":[{"name":"file","type":"string","internalType":"string"}],"outputs":[{"name":"bytecode","type":"bytes","internalType":"bytes"}],"stateMutability":"payable"},{"type":"function","name":"deploy","inputs":[{"name":"file","type":"string","internalType":"string"}],"outputs":[{"name":"","type":"address","internalType":"address"}],"stateMutability":"payable"},{"type":"function","name":"deployer","inputs":[],"outputs":[{"name":"","type":"address","internalType":"address"}],"stateMutability":"view"},{"type":"function","name":"evm_version","inputs":[],"outputs":[{"name":"","type":"string","internalType":"string"}],"stateMutability":"view"},{"type":"function","name":"get_evm_version","inputs":[],"outputs":[{"name":"","type":"string","internalType":"string"}],"stateMutability":"view"},{"type":"function","name":"set_broadcast","inputs":[{"name":"broadcast","type":"bool","internalType":"bool"}],"outputs":[{"name":"","type":"address","internalType":"contract HuffConfig"}],"stateMutability":"nonpayable"},{"type":"function","name":"should_broadcast","inputs":[],"outputs":[{"name":"","type":"bool","internalType":"bool"}],"stateMutability":"view"},{"type":"function","name":"value","inputs":[],"outputs":[{"name":"","type":"uint256","internalType":"uint256"}],"stateMutability":"view"},{"type":"function","name":"vm","inputs":[],"outputs":[{"name":"","type":"address","internalType":"contract Vm"}],"stateMutability":"view"},{"type":"function","name":"with_addr_constant","inputs":[{"name":"key","type":"string","internalType":"string"},{"name":"value_","type":"address","internalType":"address"}],"outputs":[{"name":"","type":"address","internalType":"contract HuffConfig"}],"stateMutability":"nonpayable"},{"type":"function","name":"with_args","inputs":[{"name":"args_","type":"bytes","internalType":"bytes"}],"outputs":[{"name":"","type":"address","internalType":"contract HuffConfig"}],"stateMutability":"nonpayable"},{"type":"function","name":"with_bytes32_constant","inputs":[{"name":"key","type":"string","internalType":"string"},{"name":"value_","type":"bytes32","internalType":"bytes32"}],"outputs":[{"name":"","type":"address","internalType":"contract HuffConfig"}],"stateMutability":"nonpayable"},{"type":"function","name":"with_code","inputs":[{"name":"code_","type":"string","internalType":"string"}],"outputs":[{"name":"","type":"address","internalType":"contract HuffConfig"}],"stateMutability":"nonpayable"},{"type":"function","name":"with_constant","inputs":[{"name":"key","type":"string","internalType":"string"},{"name":"value_","type":"string","internalType":"string"}],"outputs":[{"name":"","type":"address","internalType":"contract HuffConfig"}],"stateMutability":"nonpayable"},{"type":"function","name":"with_deployer","inputs":[{"name":"_deployer","type":"address","internalType":"address"}],"outputs":[{"name":"","type":"address","internalType":"contract HuffConfig"}],"stateMutability":"nonpayable"},{"type":"function","name":"with_evm_version","inputs":[{"name":"_evm_version","type":"string","internalType":"string"}],"outputs":[{"name":"","type":"address","internalType":"contract HuffConfig"}],"stateMutability":"nonpayable"},{"type":"function","name":"with_uint_constant","inputs":[{"name":"key","type":"string","internalType":"string"},{"name":"value_","type":"uint256","internalType":"uint256"}],"outputs":[{"name":"","type":"address","internalType":"contract HuffConfig"}],"stateMutability":"nonpayable"},{"type":"function","name":"with_value","inputs":[{"name":"value_","type":"uint256","internalType":"uint256"}],"outputs":[{"name":"","type":"address","internalType":"contract HuffConfig"}],"stateMutability":"nonpayable"}],"bytecode":{"object":"0x60806040523060035f6101000a81548173ffffffffffffffffffffffffffffffffffffffff021916908373ffffffffffffffffffffffffffffffffffffffff160217905550348015604e575f5ffd5b50613f928061005c5f395ff3fe60806040526004361061014a575f3560e01c80636b07af10116100b5578063c76023161161006e578063c7602316146104ef578063d5f394881461051f578063dd1ec82414610549578063df9f3dee14610573578063e5df3076146105af578063e9e68e1d146105eb5761014a565b80636b07af10146103ad5780636fcef9d5146103e95780637dc2225f146104255780638093a1b91461046157806392bb10d71461049d578063c5effd02146104d95761014a565b806328764d141161010757806328764d141461028d57806339614e4f146102c95780633a768463146103055780633fa4f2451461032f5780634e9b75b61461035957806368f192f2146103835761014a565b80630c7d16811461014e5780630cc766161461018b5780631a8f1a1c146101bb578063220481ef146101f75780632232d9081461022757806324c12bf614610263575b5f5ffd5b348015610159575f5ffd5b50610174600480360381019061016f9190612714565b610615565b6040516101829291906127af565b60405180910390f35b6101a560048036038101906101a09190612910565b610750565b6040516101b291906129a9565b60405180910390f35b3480156101c6575f5ffd5b506101e160048036038101906101dc9190612910565b610787565b6040516101ee9190612a43565b60405180910390f35b610211600480360381019061020c9190612910565b6107a0565b60405161021e91906129a9565b60405180910390f35b348015610232575f5ffd5b5061024d60048036038101906102489190612910565b6115c6565b60405161025a9190612a43565b60405180910390f35b34801561026e575f5ffd5b506102776115de565b6040516102849190612a5c565b60405180910390f35b348015610298575f5ffd5b506102b360048036038101906102ae9190612b1a565b611669565b6040516102c09190612a43565b60405180910390f35b3480156102d4575f5ffd5b506102ef60048036038101906102ea9190612b1a565b611682565b6040516102fc9190612a5c565b60405180910390f35b348015610310575f5ffd5b50610319611971565b6040516103269190612b81565b60405180910390f35b34801561033a575f5ffd5b5061034361199d565b6040516103509190612ba9565b60405180910390f35b348015610364575f5ffd5b5061036d6119a3565b60405161037a91906129a9565b60405180910390f35b34801561038e575f5ffd5b50610397611a2f565b6040516103a49190612a5c565b60405180910390f35b3480156103b8575f5ffd5b506103d360048036038101906103ce9190612bc2565b611abb565b6040516103e09190612a43565b60405180910390f35b3480156103f4575f5ffd5b5061040f600480360381019061040a9190612c57565b611b55565b60405161041c9190612a43565b60405180910390f35b348015610430575f5ffd5b5061044b60048036038101906104469190612714565b611bef565b6040516104589190612a43565b60405180910390f35b34801561046c575f5ffd5b5061048760048036038101906104829190612cb1565b611bff565b6040516104949190612a43565b60405180910390f35b3480156104a8575f5ffd5b506104c360048036038101906104be9190612d27565b611c72565b6040516104d09190612a43565b60405180910390f35b3480156104e4575f5ffd5b506104ed611cbb565b005b61050960048036038101906105049190612910565b611ed0565b6040516105169190612d61565b60405180910390f35b34801561052a575f5ffd5b50610533611ffd565b6040516105409190612d61565b60405180910390f35b348015610554575f5ffd5b5061055d612022565b60405161056a9190612a5c565b60405180910390f35b34801561057e575f5ffd5b5061059960048036038101906105949190612daf565b612128565b6040516105a69190612a43565b60405180910390f35b3480156105ba575f5ffd5b506105d560048036038101906105d09190612e0d565b61214b565b6040516105e29190612a43565b60405180910390f35b3480156105f6575f5ffd5b506105ff6121e5565b60405161060c9190612e76565b60405180910390f35b60058181548110610624575f80fd5b905f5260205f2090600202015f91509050805f01805461064390612ebc565b80601f016020809104026020016040519081016040528092919081815260200182805461066f90612ebc565b80156106ba5780601f10610691576101008083540402835291602001916106ba565b820191905f5260205f20905b81548152906001019060200180831161069d57829003601f168201915b5050505050908060010180546106cf90612ebc565b80601f01602080910402602001604051908101604052809291908181526020018280546106fb90612ebc565b80156107465780601f1061071d57610100808354040283529160200191610746565b820191905f5260205f20905b81548152906001019060200180831161072957829003601f168201915b5050505050905082565b606061075b826107a0565b9050806001604051602001610771929190612fb8565b6040516020818303038152906040529050919050565b5f81600490816107979190613172565b50309050919050565b60606107aa611cbb565b5f6107b4836121f8565b90505f6107f56040518060400160405280600181526020017f2f000000000000000000000000000000000000000000000000000000000000008152506121f8565b90505f600161080d838561222590919063ffffffff16565b610817919061326e565b67ffffffffffffffff8111156108305761082f6127ec565b5b60405190808252806020026020018201604052801561086357816020015b606081526020019060019003908161084e5790505b5090505f5f90505b81518110156108ba5761088f61088a84866122c590919063ffffffff16565b6122df565b8282815181106108a2576108a16132a1565b5b6020026020010181905250808060010191505061086b565b505f600167ffffffffffffffff8111156108d7576108d66127ec565b5b60405190808252806020026020018201604052801561090a57816020015b60608152602001906001900390816108f55790505b509050604051806060016040528060288152602001613f3560289139815f81518110610939576109386132a1565b5b60200260200101819052505f7f885cb69240a935d632d79c317109709ecfa91a80626ff3989d68f67f5b1dd12d5f1c60601b60601c73ffffffffffffffffffffffffffffffffffffffff166389160467836040518263ffffffff1660e01b81526004016109a691906133d1565b5f604051808303815f875af11580156109c1573d5f5f3e3d5ffd5b505050506040513d5f823e3d601f19601f820116820180604052508101906109e9919061345f565b90505f610a24826109f9906134c9565b604051602001610a09919061353e565b60405160208183030381529060405280519060200120612357565b90505f845f81518110610a3a57610a396132a1565b5b602002602001015190506001855111610a76578181604051602001610a609291906135b7565b6040516020818303038152906040529050610b2b565b5f600190505b60018651610a8a91906135e9565b811015610adc5781868281518110610aa557610aa46132a1565b5b6020026020010151604051602001610abe929190613642565b60405160208183030381529060405291508080600101915050610a7c565b5080828660018851610aee91906135e9565b81518110610aff57610afe6132a1565b5b6020026020010151604051602001610b1993929190613674565b60405160208183030381529060405290505b5f600367ffffffffffffffff811115610b4757610b466127ec565b5b604051908082528060200260200182016040528015610b7a57816020015b6060815260200190600190039081610b655790505b509050604051806060016040528060298152602001613edf60299139815f81518110610ba957610ba86132a1565b5b602002602001018190525081604051602001610bc5919061370e565b60405160208183030381529060405281600181518110610be857610be76132a1565b5b60200260200101819052505f604051602001610c0491906137e8565b60405160208183030381529060405281600281518110610c2757610c266132a1565b5b60200260200101819052507f885cb69240a935d632d79c317109709ecfa91a80626ff3989d68f67f5b1dd12d5f1c60601b60601c73ffffffffffffffffffffffffffffffffffffffff166389160467826040518263ffffffff1660e01b8152600401610c9391906133d1565b5f604051808303815f875af1158015610cae573d5f5f3e3d5ffd5b505050506040513d5f823e3d601f19601f82011682018060405250810190610cd6919061345f565b505f600367ffffffffffffffff811115610cf357610cf26127ec565b5b604051908082528060200260200182016040528015610d2657816020015b6060815260200190600190039081610d115790505b5090506040518060600160405280602d8152602001613f08602d9139815f81518110610d5557610d546132a1565b5b602002602001018190525082604051602001610d71919061370e565b60405160208183030381529060405281600181518110610d9457610d936132a1565b5b60200260200101819052508a604051602001610db0919061370e565b60405160208183030381529060405281600281518110610dd357610dd26132a1565b5b60200260200101819052507f885cb69240a935d632d79c317109709ecfa91a80626ff3989d68f67f5b1dd12d5f1c60601b60601c73ffffffffffffffffffffffffffffffffffffffff166389160467826040518263ffffffff1660e01b8152600401610e3f91906133d1565b5f604051808303815f875af1158015610e5a573d5f5f3e3d5ffd5b505050506040513d5f823e3d601f19601f82011682018060405250810190610e82919061345f565b505f600567ffffffffffffffff811115610e9f57610e9e6127ec565b5b604051908082528060200260200182016040528015610ed257816020015b6060815260200190600190039081610ebd5790505b5090505f600580549050111561115e576005805490506006610ef4919061326e565b67ffffffffffffffff811115610f0d57610f0c6127ec565b5b604051908082528060200260200182016040528015610f4057816020015b6060815260200190600190039081610f2b5790505b5090506040518060400160405280600281526020017f2d6300000000000000000000000000000000000000000000000000000000000081525081600581518110610f8d57610f8c6132a1565b5b6020026020010181905250610fa061269e565b5f5b60058054905081101561115b5760058181548110610fc357610fc26132a1565b5b905f5260205f2090600202016040518060400160405290815f82018054610fe990612ebc565b80601f016020809104026020016040519081016040528092919081815260200182805461101590612ebc565b80156110605780601f1061103757610100808354040283529160200191611060565b820191905f5260205f20905b81548152906001019060200180831161104357829003601f168201915b5050505050815260200160018201805461107990612ebc565b80601f01602080910402602001604051908101604052809291908181526020018280546110a590612ebc565b80156110f05780601f106110c7576101008083540402835291602001916110f0565b820191905f5260205f20905b8154815290600101906020018083116110d357829003601f168201915b5050505050815250509150815f01518260200151604051602001611115929190613833565b60405160208183030381529060405283826006611132919061326e565b81518110611143576111426132a1565b5b60200260200101819052508080600101915050610fa2565b50505b6040518060400160405280600581526020017f6875666663000000000000000000000000000000000000000000000000000000815250815f815181106111a7576111a66132a1565b5b6020026020010181905250836040516020016111c3919061370e565b604051602081830303815290604052816001815181106111e6576111e56132a1565b5b60200260200101819052506040518060400160405280600281526020017f2d620000000000000000000000000000000000000000000000000000000000008152508160028151811061123b5761123a6132a1565b5b60200260200101819052506040518060400160405280600281526020017f2d65000000000000000000000000000000000000000000000000000000000000815250816003815181106112905761128f6132a1565b5b60200260200101819052506112a3612022565b816004815181106112b7576112b66132a1565b5b60200260200101819052507f885cb69240a935d632d79c317109709ecfa91a80626ff3989d68f67f5b1dd12d5f1c60601b60601c73ffffffffffffffffffffffffffffffffffffffff166389160467826040518263ffffffff1660e01b815260040161132391906133d1565b5f604051808303815f875af115801561133e573d5f5f3e3d5ffd5b505050506040513d5f823e3d601f19601f82011682018060405250810190611366919061345f565b9a505f600267ffffffffffffffff811115611384576113836127ec565b5b6040519080825280602002602001820160405280156113b757816020015b60608152602001906001900390816113a25790505b5090506040518060400160405280600281526020017f726d000000000000000000000000000000000000000000000000000000000000815250815f81518110611403576114026132a1565b5b60200260200101819052508460405160200161141f919061370e565b60405160208183030381529060405281600181518110611442576114416132a1565b5b6020026020010181905250600360149054906101000a900460ff16611511577f885cb69240a935d632d79c317109709ecfa91a80626ff3989d68f67f5b1dd12d5f1c60601b60601c73ffffffffffffffffffffffffffffffffffffffff1663ca669fa760035f9054906101000a900473ffffffffffffffffffffffffffffffffffffffff166040518263ffffffff1660e01b81526004016114e39190612d61565b5f604051808303815f87803b1580156114fa575f5ffd5b505af115801561150c573d5f5f3e3d5ffd5b505050505b7f885cb69240a935d632d79c317109709ecfa91a80626ff3989d68f67f5b1dd12d5f1c60601b60601c73ffffffffffffffffffffffffffffffffffffffff166389160467826040518263ffffffff1660e01b815260040161157291906133d1565b5f604051808303815f875af115801561158d573d5f5f3e3d5ffd5b505050506040513d5f823e3d601f19601f820116820180604052508101906115b5919061345f565b505050505050505050505050919050565b5f815f90816115d59190613172565b50309050919050565b5f80546115ea90612ebc565b80601f016020809104026020016040519081016040528092919081815260200182805461161690612ebc565b80156116615780601f1061163857610100808354040283529160200191611661565b820191905f5260205f20905b81548152906001019060200180831161164457829003601f168201915b505050505081565b5f816001908161167991906138ab565b50309050919050565b60605f6040518060400160405280601081526020017f303132333435363738396162636465660000000000000000000000000000000081525090505f600284516116cc919061397a565b60026116d8919061326e565b67ffffffffffffffff8111156116f1576116f06127ec565b5b6040519080825280601f01601f1916602001820160405280156117235781602001600182028036833780820191505090505b5090507f3000000000000000000000000000000000000000000000000000000000000000815f8151811061175a576117596132a1565b5b60200101907effffffffffffffffffffffffffffffffffffffffffffffffffffffffffffff191690815f1a9053507f7800000000000000000000000000000000000000000000000000000000000000816001815181106117bd576117bc6132a1565b5b60200101907effffffffffffffffffffffffffffffffffffffffffffffffffffffffffffff191690815f1a9053505f5f90505b84518110156119665782600486838151811061180f5761180e6132a1565b5b602001015160f81c60f81b7effffffffffffffffffffffffffffffffffffffffffffffffffffffffffffff1916901c60f81c60ff1681518110611855576118546132a1565b5b602001015160f81c60f81b8260028361186e919061397a565b600261187a919061326e565b8151811061188b5761188a6132a1565b5b60200101907effffffffffffffffffffffffffffffffffffffffffffffffffffffffffffff191690815f1a90535082600f60f81b8683815181106118d2576118d16132a1565b5b602001015160f81c60f81b1660f81c60ff16815181106118f5576118f46132a1565b5b602001015160f81c60f81b8260028361190e919061397a565b600361191a919061326e565b8151811061192b5761192a6132a1565b5b60200101907effffffffffffffffffffffffffffffffffffffffffffffffffffffffffffff191690815f1a90535080806001019150506117f0565b508092505050919050565b7f885cb69240a935d632d79c317109709ecfa91a80626ff3989d68f67f5b1dd12d5f1c60601b60601c81565b60025481565b600180546119b090612ebc565b80601f01602080910402602001604051908101604052809291908181526020018280546119dc90612ebc565b8015611a275780601f106119fe57610100808354040283529160200191611a27565b820191905f5260205f20905b815481529060010190602001808311611a0a57829003601f168201915b505050505081565b60048054611a3c90612ebc565b80601f0160208091040260200160405190810160405280929190818152602001828054611a6890612ebc565b8015611ab35780601f10611a8a57610100808354040283529160200191611ab3565b820191905f5260205f20905b815481529060010190602001808311611a9657829003601f168201915b505050505081565b5f60056040518060400160405280858152602001611af785604051602001611ae391906139db565b604051602081830303815290604052611682565b815250908060018154018082558091505060019003905f5260205f2090600202015f909190919091505f820151815f019081611b339190613172565b506020820151816001019081611b499190613172565b50505030905092915050565b5f60056040518060400160405280858152602001611b9185604051602001611b7d9190613a3a565b604051602081830303815290604052611682565b815250908060018154018082558091505060019003905f5260205f2090600202015f909190919091505f820151815f019081611bcd9190613172565b506020820151816001019081611be39190613172565b50505030905092915050565b5f81600281905550309050919050565b5f6005604051806040016040528085815260200184815250908060018154018082558091505060019003905f5260205f2090600202015f909190919091505f820151815f019081611c509190613172565b506020820151816001019081611c669190613172565b50505030905092915050565b5f8160035f6101000a81548173ffffffffffffffffffffffffffffffffffffffff021916908373ffffffffffffffffffffffffffffffffffffffff160217905550309050919050565b5f600167ffffffffffffffff811115611cd757611cd66127ec565b5b604051908082528060200260200182016040528015611d0a57816020015b6060815260200190600190039081611cf55790505b5090506040518060600160405280602a8152602001613eb5602a9139815f81518110611d3957611d386132a1565b5b60200260200101819052505f7f885cb69240a935d632d79c317109709ecfa91a80626ff3989d68f67f5b1dd12d5f1c60601b60601c73ffffffffffffffffffffffffffffffffffffffff166389160467836040518263ffffffff1660e01b8152600401611da691906133d1565b5f604051808303815f875af1158015611dc1573d5f5f3e3d5ffd5b505050506040513d5f823e3d601f19601f82011682018060405250810190611de9919061345f565b90505f815f81518110611dff57611dfe6132a1565b5b602001015160f81c60f81b7effffffffffffffffffffffffffffffffffffffffffffffffffffffffffffff191690505f7f010000000000000000000000000000000000000000000000000000000000000077ffffffffffffffffffffffffffffffffffffffffffffffff19168277ffffffffffffffffffffffffffffffffffffffffffffffff191614905080611eca576040517f08c379a0000000000000000000000000000000000000000000000000000000008152600401611ec190613aea565b60405180910390fd5b50505050565b5f5f611edb83610750565b90505f600360149054906101000a900460ff1615611f77577f885cb69240a935d632d79c317109709ecfa91a80626ff3989d68f67f5b1dd12d5f1c60601b60601c73ffffffffffffffffffffffffffffffffffffffff1663afc980406040518163ffffffff1660e01b81526004015f604051808303815f87803b158015611f60575f5ffd5b505af1158015611f72573d5f5f3e3d5ffd5b505050505b60025482516020840182f09150505f73ffffffffffffffffffffffffffffffffffffffff168173ffffffffffffffffffffffffffffffffffffffff1603611ff3576040517f08c379a0000000000000000000000000000000000000000000000000000000008152600401611fea90613b78565b60405180910390fd5b8092505050919050565b60035f9054906101000a900473ffffffffffffffffffffffffffffffffffffffff1681565b60605f60046040516020016120379190613b96565b60405160208183030381529060405261204f906134c9565b90505f5f1b8103612098576040518060400160405280600881526020017f7368616e67686169000000000000000000000000000000000000000000000000815250915050612125565b600480546120a590612ebc565b80601f01602080910402602001604051908101604052809291908181526020018280546120d190612ebc565b801561211c5780601f106120f35761010080835404028352916020019161211c565b820191905f5260205f20905b8154815290600101906020018083116120ff57829003601f168201915b50505050509150505b90565b5f81600360146101000a81548160ff021916908315150217905550309050919050565b5f60056040518060400160405280858152602001612187856040516020016121739190613bcc565b604051602081830303815290604052611682565b815250908060018154018082558091505060019003905f5260205f2090600202015f909190919091505f820151815f0190816121c39190613172565b5060208201518160010190816121d99190613172565b50505030905092915050565b600360149054906101000a900460ff1681565b6122006126b8565b5f60208301905060405180604001604052808451815260200182815250915050919050565b5f5f825f0151612245855f01518660200151865f015187602001516123f6565b61224f919061326e565b90505b835f01518460200151612265919061326e565b81116122be57818061227690613be6565b925050825f01516122ad85602001518361229091906135e9565b865f015161229e91906135e9565b83865f015187602001516123f6565b6122b7919061326e565b9050612252565b5092915050565b6122cd6126b8565b6122d8838383612535565b5092915050565b60605f825f015167ffffffffffffffff8111156122ff576122fe6127ec565b5b6040519080825280601f01601f1916602001820160405280156123315781602001600182028036833780820191505090505b5090505f60208201905061234d818560200151865f01516125f4565b8192505050919050565b6060805f5f90505b602060ff168110156123ec57816061601a868460208110612383576123826132a1565b5b1a60f81b60f81c6123949190613c66565b61239e9190613c96565b6040516020016123ae9190613cfe565b6040516020818303038152906040526040516020016123ce929190613d18565b6040516020818303038152906040529150808060010191505061235f565b5080915050919050565b5f5f8490505f86851161251c57602085116124c2575f5f86111561244b57600186602061242391906135e9565b600861242f919061397a565b600261243b9190613e6a565b61244591906135e9565b195f1b90505b5f8186511690505f878a8a612460919061326e565b61246a91906135e9565b90505f8386511690505b8281146124b45781861061249b578a8a61248e919061326e565b965050505050505061252d565b85806124a690613be6565b965050838651169050612474565b85965050505050505061252d565b5f85852090505f91505b85886124d891906135e9565b821161251a575f86842090508082036124f7578394505050505061252d565b600184612504919061326e565b935050818061251290613be6565b9250506124cc565b505b8686612528919061326e565b925050505b949350505050565b61253d6126b8565b5f612558855f01518660200151865f015187602001516123f6565b9050846020015183602001818152505084602001518161257891906135e9565b835f018181525050845f01518560200151612593919061326e565b81036125a7575f855f0181815250506125e9565b835f0151835f01516125b9919061326e565b855f018181516125c991906135e9565b91508181525050835f0151816125df919061326e565b8560200181815250505b829150509392505050565b5b60208110612633578151835260208361260e919061326e565b925060208261261d919061326e565b915060208161262c91906135e9565b90506125f5565b5f7fffffffffffffffffffffffffffffffffffffffffffffffffffffffffffffffff90505f82111561268857600182602061266e91906135e9565b61010061267b9190613e6a565b61268591906135e9565b90505b8019835116818551168181178652505050505050565b604051806040016040528060608152602001606081525090565b60405180604001604052805f81526020015f81525090565b5f604051905090565b5f5ffd5b5f5ffd5b5f819050919050565b6126f3816126e1565b81146126fd575f5ffd5b50565b5f8135905061270e816126ea565b92915050565b5f60208284031215612729576127286126d9565b5b5f61273684828501612700565b91505092915050565b5f81519050919050565b5f82825260208201905092915050565b8281835e5f83830152505050565b5f601f19601f8301169050919050565b5f6127818261273f565b61278b8185612749565b935061279b818560208601612759565b6127a481612767565b840191505092915050565b5f6040820190508181035f8301526127c78185612777565b905081810360208301526127db8184612777565b90509392505050565b5f5ffd5b5f5ffd5b7f4e487b71000000000000000000000000000000000000000000000000000000005f52604160045260245ffd5b61282282612767565b810181811067ffffffffffffffff82111715612841576128406127ec565b5b80604052505050565b5f6128536126d0565b905061285f8282612819565b919050565b5f67ffffffffffffffff82111561287e5761287d6127ec565b5b61288782612767565b9050602081019050919050565b828183375f83830152505050565b5f6128b46128af84612864565b61284a565b9050828152602081018484840111156128d0576128cf6127e8565b5b6128db848285612894565b509392505050565b5f82601f8301126128f7576128f66127e4565b5b81356129078482602086016128a2565b91505092915050565b5f60208284031215612925576129246126d9565b5b5f82013567ffffffffffffffff811115612942576129416126dd565b5b61294e848285016128e3565b91505092915050565b5f81519050919050565b5f82825260208201905092915050565b5f61297b82612957565b6129858185612961565b9350612995818560208601612759565b61299e81612767565b840191505092915050565b5f6020820190508181035f8301526129c18184612971565b905092915050565b5f73ffffffffffffffffffffffffffffffffffffffff82169050919050565b5f819050919050565b5f612a0b612a06612a01846129c9565b6129e8565b6129c9565b9050919050565b5f612a1c826129f1565b9050919050565b5f612a2d82612a12565b9050919050565b612a3d81612a23565b82525050565b5f602082019050612a565f830184612a34565b92915050565b5f6020820190508181035f830152612a748184612777565b905092915050565b5f67ffffffffffffffff821115612a9657612a956127ec565b5b612a9f82612767565b9050602081019050919050565b5f612abe612ab984612a7c565b61284a565b905082815260208101848484011115612ada57612ad96127e8565b5b612ae5848285612894565b509392505050565b5f82601f830112612b0157612b006127e4565b5b8135612b11848260208601612aac565b91505092915050565b5f60208284031215612b2f57612b2e6126d9565b5b5f82013567ffffffffffffffff811115612b4c57612b4b6126dd565b5b612b5884828501612aed565b91505092915050565b5f612b6b82612a12565b9050919050565b612b7b81612b61565b82525050565b5f602082019050612b945f830184612b72565b92915050565b612ba3816126e1565b82525050565b5f602082019050612bbc5f830184612b9a565b92915050565b5f5f60408385031215612bd857612bd76126d9565b5b5f83013567ffffffffffffffff811115612bf557612bf46126dd565b5b612c01858286016128e3565b9250506020612c1285828601612700565b9150509250929050565b5f612c26826129c9565b9050919050565b612c3681612c1c565b8114612c40575f5ffd5b50565b5f81359050612c5181612c2d565b92915050565b5f5f60408385031215612c6d57612c6c6126d9565b5b5f83013567ffffffffffffffff811115612c8a57612c896126dd565b5b612c96858286016128e3565b9250506020612ca785828601612c43565b9150509250929050565b5f5f60408385031215612cc757612cc66126d9565b5b5f83013567ffffffffffffffff811115612ce457612ce36126dd565b5b612cf0858286016128e3565b925050602083013567ffffffffffffffff811115612d1157612d106126dd565b5b612d1d858286016128e3565b9150509250929050565b5f60208284031215612d3c57612d3b6126d9565b5b5f612d4984828501612c43565b91505092915050565b612d5b81612c1c565b82525050565b5f602082019050612d745f830184612d52565b92915050565b5f8115159050919050565b612d8e81612d7a565b8114612d98575f5ffd5b50565b5f81359050612da981612d85565b92915050565b5f60208284031215612dc457612dc36126d9565b5b5f612dd184828501612d9b565b91505092915050565b5f819050919050565b612dec81612dda565b8114612df6575f5ffd5b50565b5f81359050612e0781612de3565b92915050565b5f5f60408385031215612e2357612e226126d9565b5b5f83013567ffffffffffffffff811115612e4057612e3f6126dd565b5b612e4c858286016128e3565b9250506020612e5d85828601612df9565b9150509250929050565b612e7081612d7a565b82525050565b5f602082019050612e895f830184612e67565b92915050565b7f4e487b71000000000000000000000000000000000000000000000000000000005f52602260045260245ffd5b5f6002820490506001821680612ed357607f821691505b602082108103612ee657612ee5612e8f565b5b50919050565b5f81905092915050565b5f612f0082612957565b612f0a8185612eec565b9350612f1a818560208601612759565b80840191505092915050565b5f819050815f5260205f209050919050565b5f8154612f4481612ebc565b612f4e8186612eec565b9450600182165f8114612f685760018114612f7d57612faf565b60ff1983168652811515820286019350612faf565b612f8685612f26565b5f5b83811015612fa757815481890152600182019150602081019050612f88565b838801955050505b50505092915050565b5f612fc38285612ef6565b9150612fcf8284612f38565b91508190509392505050565b5f819050815f5260205f209050919050565b5f6020601f8301049050919050565b5f82821b905092915050565b5f600883026130377fffffffffffffffffffffffffffffffffffffffffffffffffffffffffffffffff82612ffc565b6130418683612ffc565b95508019841693508086168417925050509392505050565b5f61307361306e613069846126e1565b6129e8565b6126e1565b9050919050565b5f819050919050565b61308c83613059565b6130a06130988261307a565b848454613008565b825550505050565b5f5f905090565b6130b76130a8565b6130c2818484613083565b505050565b5b818110156130e5576130da5f826130af565b6001810190506130c8565b5050565b601f82111561312a576130fb81612fdb565b61310484612fed565b81016020851015613113578190505b61312761311f85612fed565b8301826130c7565b50505b505050565b5f82821c905092915050565b5f61314a5f198460080261312f565b1980831691505092915050565b5f613162838361313b565b9150826002028217905092915050565b61317b8261273f565b67ffffffffffffffff811115613194576131936127ec565b5b61319e8254612ebc565b6131a98282856130e9565b5f60209050601f8311600181146131da575f84156131c8578287015190505b6131d28582613157565b865550613239565b601f1984166131e886612fdb565b5f5b8281101561320f578489015182556001820191506020850194506020810190506131ea565b8683101561322c5784890151613228601f89168261313b565b8355505b6001600288020188555050505b505050505050565b7f4e487b71000000000000000000000000000000000000000000000000000000005f52601160045260245ffd5b5f613278826126e1565b9150613283836126e1565b925082820190508082111561329b5761329a613241565b5b92915050565b7f4e487b71000000000000000000000000000000000000000000000000000000005f52603260045260245ffd5b5f81519050919050565b5f82825260208201905092915050565b5f819050602082019050919050565b5f82825260208201905092915050565b5f6133118261273f565b61331b81856132f7565b935061332b818560208601612759565b61333481612767565b840191505092915050565b5f61334a8383613307565b905092915050565b5f602082019050919050565b5f613368826132ce565b61337281856132d8565b935083602082028501613384856132e8565b805f5b858110156133bf57848403895281516133a0858261333f565b94506133ab83613352565b925060208a01995050600181019050613387565b50829750879550505050505092915050565b5f6020820190508181035f8301526133e9818461335e565b905092915050565b5f6134036133fe84612a7c565b61284a565b90508281526020810184848401111561341f5761341e6127e8565b5b61342a848285612759565b509392505050565b5f82601f830112613446576134456127e4565b5b81516134568482602086016133f1565b91505092915050565b5f60208284031215613474576134736126d9565b5b5f82015167ffffffffffffffff811115613491576134906126dd565b5b61349d84828501613432565b91505092915050565b5f819050602082019050919050565b5f6134c08251612dda565b80915050919050565b5f6134d382612957565b826134dd846134a6565b90506134e8816134b5565b92506020821015613528576135237fffffffffffffffffffffffffffffffffffffffffffffffffffffffffffffffff83602003600802612ffc565b831692505b5050919050565b61353881612dda565b82525050565b5f6020820190506135515f83018461352f565b92915050565b7f5f5f54454d505f5f000000000000000000000000000000000000000000000000815250565b5f81905092915050565b5f6135918261273f565b61359b818561357d565b93506135ab818560208601612759565b80840191505092915050565b5f6135c182613557565b6008820191506135d18285613587565b91506135dd8284613587565b91508190509392505050565b5f6135f3826126e1565b91506135fe836126e1565b925082820390508181111561361657613615613241565b5b92915050565b7f2f00000000000000000000000000000000000000000000000000000000000000815250565b5f61364d8285613587565b91506136588261361c565b6001820191506136688284613587565b91508190509392505050565b5f61367f8286613587565b915061368a8261361c565b60018201915061369982613557565b6008820191506136a98285613587565b91506136b58284613587565b9150819050949350505050565b7f7372632f00000000000000000000000000000000000000000000000000000000815250565b7f2e68756666000000000000000000000000000000000000000000000000000000815250565b5f613718826136c2565b6004820191506137288284613587565b9150613733826136e8565b60058201915081905092915050565b5f815461374e81612ebc565b613758818661357d565b9450600182165f81146137725760018114613787576137b9565b60ff19831686528115158202860193506137b9565b61379085612fdb565b5f5b838110156137b157815481890152600182019150602081019050613792565b838801955050505b50505092915050565b7f0a00000000000000000000000000000000000000000000000000000000000000815250565b5f6137f38284613742565b91506137fe826137c2565b60018201915081905092915050565b7f3d00000000000000000000000000000000000000000000000000000000000000815250565b5f61383e8285613587565b91506138498261380d565b6001820191506138598284613587565b91508190509392505050565b601f8211156138a65761387781612f26565b61388084612fed565b8101602085101561388f578190505b6138a361389b85612fed565b8301826130c7565b50505b505050565b6138b482612957565b67ffffffffffffffff8111156138cd576138cc6127ec565b5b6138d78254612ebc565b6138e2828285613865565b5f60209050601f831160018114613913575f8415613901578287015190505b61390b8582613157565b865550613972565b601f19841661392186612f26565b5f5b8281101561394857848901518255600182019150602085019450602081019050613923565b868310156139655784890151613961601f89168261313b565b8355505b6001600288020188555050505b505050505050565b5f613984826126e1565b915061398f836126e1565b925082820261399d816126e1565b915082820484148315176139b4576139b3613241565b5b5092915050565b5f819050919050565b6139d56139d0826126e1565b6139bb565b82525050565b5f6139e682846139c4565b60208201915081905092915050565b5f8160601b9050919050565b5f613a0b826139f5565b9050919050565b5f613a1c82613a01565b9050919050565b613a34613a2f82612c1c565b613a12565b82525050565b5f613a458284613a23565b60148201915081905092915050565b7f496e76616c69642068756666632062696e6172792e2052756e20606375726c205f8201527f2d4c206765742e687566662e7368207c20626173686020616e6420606875666660208201527f75706020746f206669782e000000000000000000000000000000000000000000604082015250565b5f613ad4604b83612749565b9150613adf82613a54565b606082019050919050565b5f6020820190508181035f830152613b0181613ac8565b9050919050565b7f487566664465706c6f79657220636f756c64206e6f74206465706c6f7920636f5f8201527f6e74726163740000000000000000000000000000000000000000000000000000602082015250565b5f613b62602683612749565b9150613b6d82613b08565b604082019050919050565b5f6020820190508181035f830152613b8f81613b56565b9050919050565b5f613ba18284613742565b915081905092915050565b5f819050919050565b613bc6613bc182612dda565b613bac565b82525050565b5f613bd78284613bb5565b60208201915081905092915050565b5f613bf0826126e1565b91507fffffffffffffffffffffffffffffffffffffffffffffffffffffffffffffffff8203613c2257613c21613241565b5b600182019050919050565b5f60ff82169050919050565b7f4e487b71000000000000000000000000000000000000000000000000000000005f52601260045260245ffd5b5f613c7082613c2d565b9150613c7b83613c2d565b925082613c8b57613c8a613c39565b5b828206905092915050565b5f613ca082613c2d565b9150613cab83613c2d565b9250828201905060ff811115613cc457613cc3613241565b5b92915050565b5f8160f81b9050919050565b5f613ce082613cca565b9050919050565b613cf8613cf382613c2d565b613cd6565b82525050565b5f613d098284613ce7565b60018201915081905092915050565b5f613d238285613587565b9150613d2f8284613587565b91508190509392505050565b5f8160011c9050919050565b5f5f8291508390505b6001851115613d9057808604811115613d6c57613d6b613241565b5b6001851615613d7b5780820291505b8081029050613d8985613d3b565b9450613d50565b94509492505050565b5f82613da85760019050613e63565b81613db5575f9050613e63565b8160018114613dcb5760028114613dd557613e04565b6001915050613e63565b60ff841115613de757613de6613241565b5b8360020a915084821115613dfe57613dfd613241565b5b50613e63565b5060208310610133831016604e8410600b8410161715613e395782820a905083811115613e3457613e33613241565b5b613e63565b613e468484846001613d47565b92509050818404811115613e5d57613e5c613241565b5b81810290505b9392505050565b5f613e74826126e1565b9150613e7f836126e1565b9250613eac7fffffffffffffffffffffffffffffffffffffffffffffffffffffffffffffffff8484613d99565b90509291505056fe2e2f6c69622f666f756e6472792d687566662f736372697074732f62696e6172795f636865636b2e73682e2f6c69622f666f756e6472792d687566662f736372697074732f66696c655f7772697465722e73682e2f6c69622f666f756e6472792d687566662f736372697074732f726561645f616e645f617070656e642e73682e2f6c69622f666f756e6472792d687566662f736372697074732f72616e645f62797465732e7368a2646970667358221220025a76252a6df4b68ec477be3c60c10ff6a8a5b970a78e304f433aadc7a55e4164736f6c634300081e0033","linkReferences":{}},"methodIdentifiers":{"args()":"4e9b75b6","binary_check()":"c5effd02","bytesToString(bytes)":"39614e4f","code()":"24c12bf6","const_overrides(uint256)":"0c7d1681","creation_code(string)":"220481ef","creation_code_with_args(string)":"0cc76616","deploy(string)":"c7602316","deployer()":"d5f39488","evm_version()":"68f192f2","get_evm_version()":"dd1ec824","set_broadcast(bool)":"df9f3dee","should_broadcast()":"e9e68e1d","value()":"3fa4f245","vm()":"3a768463","with_addr_constant(string,address)":"6fcef9d5","with_args(bytes)":"28764d14","with_bytes32_constant(string,bytes32)":"e5df3076","with_code(string)":"2232d908","with_constant(string,string)":"8093a1b9","with_deployer(address)":"92bb10d7","with_evm_version(string)":"1a8f1a1c","with_uint_constant(string,uint256)":"6b07af10","with_value(uint256)":"7dc2225f"},"id":15}