{"abi":[{"type":"function","name":"airdropERC20","inputs":[{"name":"tokenAddress","type":"address","internalType":"address"},{"name":"recipients","type":"address[]","internalType":"address[]"},{"name":"amounts","type":"uint256[]","internalType":"uint256[]"},{"name":"totalAmount","type":"uint256","internalType":"uint256"}],"outputs":[],"stateMutability":"nonpayable"},{"type":"function","name":"areListsValid","inputs":[{"name":"recipients","type":"address[]","internalType":"address[]"},{"name":"amounts","type":"uint256[]","internalType":"uint256[]"}],"outputs":[{"name":"","type":"bool","internalType":"bool"}],"stateMutability":"pure"}],"bytecode":{"object":"0x6080604052348015600e575f5ffd5b506106ae8061001c5f395ff3fe608060405234801561000f575f5ffd5b5060043610610034575f3560e01c80634d88119a1461003857806382947abe14610068575b5f5ffd5b610052600480360381019061004d91906103df565b610084565b60405161005f9190610477565b60405180910390f35b610082600480360381019061007d919061051d565b610215565b005b5f5f8585905003610097575f905061020d565b8282905085859050146100ac575f905061020d565b5f5b85859050811015610207575f73ffffffffffffffffffffffffffffffffffffffff168686838181106100e3576100e26105c0565b5b90506020020160208101906100f891906105ed565b73ffffffffffffffffffffffffffffffffffffffff160361011c575f91505061020d565b5f8484838181106101305761012f6105c0565b5b9050602002013503610145575f91505061020d565b5f6001826101539190610645565b90505b868690508110156101f957868682818110610174576101736105c0565b5b905060200201602081019061018991906105ed565b73ffffffffffffffffffffffffffffffffffffffff168787848181106101b2576101b16105c0565b5b90506020020160208101906101c791906105ed565b73ffffffffffffffffffffffffffffffffffffffff16036101ec575f9250505061020d565b8080600101915050610156565b5080806001019150506100ae565b50600190505b949350505050565b818414610229576350a302d65f526004601cfd5b7f23b872dd000000000000000000000000000000000000000000000000000000005f523360045230602452806044525f5f60645f5f8a5af16102725763fa10ea065f526004601cfd5b7fa9059cbb000000000000000000000000000000000000000000000000000000005f528360051b85018386035f875b600115610301578035806102bc57631647bca25f526004601cfd5b8060045283820335602452602451830192505f5f60445f5f8f5af16102e85763fa10ea065f526004601cfd5b6020820191508482106102fb5750610301565b506102a1565b50838114610316576363b625635f526004601cfd5b505050505050505050565b5f5ffd5b5f5ffd5b5f5ffd5b5f5ffd5b5f5ffd5b5f5f83601f84011261034a57610349610329565b5b8235905067ffffffffffffffff8111156103675761036661032d565b5b60208301915083602082028301111561038357610382610331565b5b9250929050565b5f5f83601f84011261039f5761039e610329565b5b8235905067ffffffffffffffff8111156103bc576103bb61032d565b5b6020830191508360208202830111156103d8576103d7610331565b5b9250929050565b5f5f5f5f604085870312156103f7576103f6610321565b5b5f85013567ffffffffffffffff81111561041457610413610325565b5b61042087828801610335565b9450945050602085013567ffffffffffffffff81111561044357610442610325565b5b61044f8782880161038a565b925092505092959194509250565b5f8115159050919050565b6104718161045d565b82525050565b5f60208201905061048a5f830184610468565b92915050565b5f73ffffffffffffffffffffffffffffffffffffffff82169050919050565b5f6104b982610490565b9050919050565b6104c9816104af565b81146104d3575f5ffd5b50565b5f813590506104e4816104c0565b92915050565b5f819050919050565b6104fc816104ea565b8114610506575f5ffd5b50565b5f81359050610517816104f3565b92915050565b5f5f5f5f5f5f6080878903121561053757610536610321565b5b5f61054489828a016104d6565b965050602087013567ffffffffffffffff81111561056557610564610325565b5b61057189828a01610335565b9550955050604087013567ffffffffffffffff81111561059457610593610325565b5b6105a089828a0161038a565b935093505060606105b389828a01610509565b9150509295509295509295565b7f4e487b71000000000000000000000000000000000000000000000000000000005f52603260045260245ffd5b5f6020828403121561060257610601610321565b5b5f61060f848285016104d6565b91505092915050565b7f4e487b71000000000000000000000000000000000000000000000000000000005f52601160045260245ffd5b5f61064f826104ea565b915061065a836104ea565b925082820190508082111561067257610671610618565b5b9291505056fea26469706673582212202b9374f1583183f5b5e09c262a41c50c9f90aeffba0922208c00a35c478163fa64736f6c634300081e0033","linkReferences":{}},"methodIdentifiers":{"airdropERC20(address,address[],uint256[],uint256)":"82947abe","areListsValid(address[],uint256[])":"4d88119a"},"id":21}